S00B00004C43442E7372656346
S11300000C942A000C9434000C9434000C943400A6
S11300100C9434000C9434000C9434000C9434008C
S11300200C9434000C9434000C9434000C9434007C
S11300300C9434000C9434000C9434000C9434006C
S11300400C9434000C9434000C9434000C9434005C
S11300500C94340011241FBECFE5D8E0DEBFCDBF21
S11300600E94430A0C947D0B0C940000CF93DF9301
S113007000D0CDB7DEB789836A838A81813009F0E5
S113008074C089818830A8F48BE390E02BE330E0DE
S1130090F9012081622F2981422F50E021E030E0D4
S11300A002C0220F331F4A95E2F7262BFC0120835E
S11300B0D6C089818830D8F089818031C0F488E342
S11300C090E028E330E0F9012081622F2981222F7A
S11300D030E0A9014850510921E030E002C0220F6C
S11300E0331F4A95E2F7262BFC012083B8C089818F
S11300F08031D8F089818831C0F485E390E025E32C
S113010030E0F9012081622F2981222F30E0A901FA
S11301104051510921E030E002C0220F331F4A95BB
S1130120E2F7262BFC0120839AC08981883108F4E8
S113013096C08981813208F092C082E390E022E384
S113014030E0F9012081622F2981222F30E0A901BA
S11301504851510921E030E002C0220F331F4A9573
S1130160E2F7262BFC0120837AC08A81882309F0D8
S113017076C089818830B0F48BE390E02BE330E0E3
S1130180F9012081622F2981422F50E021E030E0E3
S113019002C0220F331F4A95E2F720952623FC0163
S11301A020835DC089818830E0F089818031C8F482
S11301B088E390E028E330E0F9012081622F29816F
S11301C0222F30E0A9014850510921E030E002C05B
S11301D0220F331F4A95E2F720952623FC01208342
S11301E03EC089818031E0F089818831C8F485E39B
S11301F090E025E330E0F9012081622F2981222F4C
S113020030E0A9014051510921E030E002C0220F41
S1130210331F4A95E2F720952623FC0120831FC053
S113022089818831E0F089818132C8F482E390E0E9
S113023022E330E0F9012081622F2981222F30E06E
S1130240A9014851510921E030E002C0220F331FB7
S11302504A95E2F720952623FC01208300C0000084
S11302600F900F90DF91CF910895CF93DF9300D03B
S1130270CDB7DEB789836A838A81813009F074C07F
S113028089818830A8F48AE390E02AE330E0F90118
S11302902081622F2981422F50E021E030E002C00A
S11302A0220F331F4A95E2F7262BFC012083D6C088
S11302B089818830D8F089818031C0F487E390E067
S11302C027E330E0F9012081622F2981222F30E0D9
S11302D0A9014850510921E030E002C0220F331F28
S11302E04A95E2F7262BFC012083B8C0898180312E
S11302F0D8F089818831C0F484E390E024E330E0CD
S1130300F9012081622F2981222F30E0A901405177
S1130310510921E030E002C0220F331F4A95E2F771
S1130320262BFC0120839AC08981883108F496C069
S11303308981813208F092C081E390E021E330E0CA
S1130340F9012081622F2981222F30E0A90148512F
S1130350510921E030E002C0220F331F4A95E2F731
S1130360262BFC0120837AC08A81882309F076C079
S113037089818830B0F48AE390E02AE330E0F9011F
S11303802081622F2981422F50E021E030E002C019
S1130390220F331F4A95E2F720952623FC01208380
S11303A05DC089818830E0F089818031C8F487E3B9
S11303B090E027E330E0F9012081622F2981222F88
S11303C030E0A9014850510921E030E002C0220F79
S11303D0331F4A95E2F720952623FC0120833EC073
S11303E089818031E0F089818831C8F484E390E028
S11303F024E330E0F9012081622F2981222F30E0AB
S1130400A9014051510921E030E002C0220F331FFD
S11304104A95E2F720952623FC0120831FC0898199
S11304208831E0F089818132C8F481E390E021E3EE
S113043030E0F9012081622F2981222F30E0A901C7
S11304404851510921E030E002C0220F331F4A9580
S1130450E2F720952623FC01208300C000000F90C2
S11304600F90DF91CF9108950F931F93CF93DF9354
S1130470CDB7DEB7C654D1090FB6F894DEBF0FBEB0
S1130480CDBF61E081E00E94350161E082E00E941D
S1130490350161E083E00E94350161E084E00E945F
S11304A0350161E085E00E94350161E086E00E944B
S11304B0350161E087E00E94350180E090E0A0EF23
S11304C0B1E489839A83AB83BC8320E030E04AE7BC
S11304D055E469817A818B819C810E94E80ADC0160
S11304E0CB019E01235C3F4FF90180839183A2835A
S11304F0B38320E030E040E85FE3CE01CD96FC0119
S113050060817181828193810E94620A88234CF404
S1130510CE018F5B9F4F21E030E0FC0131832083CB
S113052067C020E03FEF4FE757E4CE01CD96FC01D2
S113053060817181828193810E94E30A18160CF014
S113054046C020E030E040E251E469817A818B8149
S11305509C810E94E80ADC01CB018E010F5B1F4FD6
S1130560BC01CD010E94670ADC01CB01F801918333
S1130570808324C0CE018D5B9F4F20E931E0FC01D4
S113058031832083CE018D5B9F4FFC01808191815B
S11305900197F1F79E012D5B3F4FF9019183808311
S11305A0CE018F5B9F4F9E012F5B3F4FF90120814E
S11305B0318121503109FC0131832083CE018F5BCD
S11305C09F4FFC0180819181892BA1F62BC08E0164
S11305D00F5B1F4FCE01CD96FC016081718182813A
S11305E093810E94670ADC01CB01F8019183808327
S11305F0CE018B5B9F4F9E012F5B3F4FF901208102
S11306003181FC0131832083CE018B5B9F4FFC0140
S1130610808191810197F1F79E012B5B3F4FF90196
S11306209183808383E30E94F90482E30E94F904A6
S113063088E20E94F90480E090E0A0E8BFE38D83A3
S11306409E83AF83B88720E030E04AE755E46D81AC
S11306507E818F8198850E94E80ADC01CB018BABF7
S11306609CABADABBEAB20E030E040E85FE36BA9F0
S11306707CA98DA99EA90E94620A88232CF481E09A
S113068090E098AF8FAB3FC020E03FEF4FE757E4D7
S11306906BA97CA98DA99EA90E94E30A18164CF5A2
S11306A020E030E040E251E46D817E818F819885C5
S11306B00E94E80ADC01CB01BC01CD010E94670A5B
S11306C0DC01CB0198AF8FAB0FC080E991E09AAF0A
S11306D089AF89AD9AAD0197F1F79AAF89AF8FA928
S11306E098AD019798AF8FAB8FA998AD892B69F717
S11306F014C06BA97CA98DA99EA90E94670ADC017C
S1130700CB0198AF8FAB8FA998AD9CAF8BAF8BAD5E
S11307109CAD0197F1F79CAF8BAF8EE00E94F9047A
S113072080E090E0A0E8BFE389879A87AB87BC8725
S113073020E030E04AE755E469857A858B859C851D
S11307400E94E80ADC01CB0189A79AA7ABA7BCA742
S113075020E030E040E85FE369A57AA58BA59CA57D
S11307600E94620A88232CF481E090E09EA78DA762
S11307703FC020E03FEF4FE757E469A57AA58BA57A
S11307809CA50E94E30A18164CF520E030E040E2F4
S113079051E469857A858B859C850E94E80ADC0191
S11307A0CB01BC01CD010E94670ADC01CB019EA7ED
S11307B08DA70FC080E991E098AB8FA78FA598A96A
S11307C00197F1F798AB8FA78DA59EA501979EA7DA
S11307D08DA78DA59EA5892B69F714C069A57AA557
S11307E08BA59CA50E94670ADC01CB019EA78DA75F
S11307F08DA59EA59AAB89AB89A99AA90197F1F712
S11308009AAB89AB81E00E94F90480E090E0A0E01B
S1130810B0E48D879E87AF87B88B20E030E04AE74D
S113082055E46D857E858F8598890E94E80ADC01F0
S1130830CB018F8F98A3A9A3BAA320E030E040E8AE
S11308405FE36F8D78A189A19AA10E94620A88232F
S11308502CF481E090E09CA38BA33FC020E03FEF09
S11308604FE757E46F8D78A189A19AA10E94E30A0A
S113087018164CF520E030E040E251E46D857E85A9
S11308808F8598890E94E80ADC01CB01BC01CD0167
S11308900E94670ADC01CB019CA38BA30FC080E9F3
S11308A091E09EA38DA38DA19EA10197F1F79EA334
S11308B08DA38BA19CA101979CA38BA38BA19CA12D
S11308C0892B69F714C06F8D78A189A19AA10E9420
S11308D0670ADC01CB019CA38BA38BA19CA198A7E5
S11308E08FA38FA198A50197F1F798A78FA386E00E
S11308F00E94F90480E090E0A0E0B0E4898B9A8B38
S1130900AB8BBC8B20E030E04AE755E469897A89F7
S11309108B899C890E94E80ADC01CB018D8B9E8B1C
S1130920AF8BB88F20E030E040E85FE36D897E89CB
S11309308F89988D0E94620A88232CF481E090E0CC
S11309409A8F898F3FC020E03FEF4FE757E46D89CE
S11309507E898F89988D0E94E30A18164CF520E051
S113096030E040E251E469897A898B899C890E944C
S1130970E80ADC01CB01BC01CD010E94670ADC015D
S1130980CB019A8F898F0FC080E991E09C8F8B8F68
S11309908B8D9C8D0197F1F79C8F8B8F898D9A8D10
S11309A001979A8F898F898D9A8D892B69F714C045
S11309B06D897E898F89988D0E94670ADC01CB013D
S11309C09A8F898F898D9A8D9E8F8D8F8D8D9E8D17
S11309D00197F1F79E8F8D8F0000CA5BDF4F0FB632
S11309E0F894DEBF0FBECDBFDF91CF911F910F9161
S11309F00895CF93DF93CDB7DEB7E9970FB6F89498
S1130A00DEBF0FBECDBF89AF89AD881F8827881F81
S1130A10682F87E00E94360089AD82958695869579
S1130A2083708170682F86E00E94360089AD8295BC
S1130A30869587708170682F85E00E94360089ADA5
S1130A4082958F708170682F84E00E94360060E088
S1130A5081E00E94360060E082E00E94360061E09E
S1130A6083E00E94360080E090E0A0E2B1E4898354
S1130A709A83AB83BC8320E030E04AE755E4698184
S1130A807A818B819C810E94E80ADC01CB018FA7CB
S1130A9098ABA9ABBAAB20E030E040E85FE36FA5C8
S1130AA078A989A99AA90E94620A88232CF481E072
S1130AB090E09CAB8BAB3FC020E03FEF4FE757E4A7
S1130AC06FA578A989A99AA90E94E30A18164CF57A
S1130AD020E030E040E251E469817A818B819C819D
S1130AE00E94E80ADC01CB01BC01CD010E94670A27
S1130AF0DC01CB019CAB8BAB0FC080E991E09EABDA
S1130B008DAB8DA99EA90197F1F79EAB8DAB8BA9F7
S1130B109CA901979CAB8BAB8BA99CA9892B69F7EA
S1130B2014C06FA578A989A99AA90E94670ADC0153
S1130B30CB019CAB8BAB8BA99CA998AF8FAB8FA936
S1130B4098AD0197F1F798AF8FAB60E083E00E9416
S1130B50360080E090E0A0EAB0E48D839E83AF830A
S1130B60B88720E030E04AE755E46D817E818F81CB
S1130B7098850E94E80ADC01CB018DA39EA3AFA354
S1130B80B8A720E030E040E85FE36DA17EA18FA12B
S1130B9098A50E94620A88232CF481E090E09AA729
S1130BA089A73FC020E03FEF4FE757E46DA17EA146
S1130BB08FA198A50E94E30A18164CF520E030E0B6
S1130BC040E251E46D817E818F8198850E94E80A1C
S1130BD0DC01CB01BC01CD010E94670ADC01CB0121
S1130BE09AA789A70FC080E991E09CA78BA78BA542
S1130BF09CA50197F1F79CA78BA789A59AA50197B6
S1130C009AA789A789A59AA5892B69F714C06DA10C
S1130C107EA18FA198A50E94670ADC01CB019AA747
S1130C2089A789A59AA59EA78DA78DA59EA501979D
S1130C30F1F79EA78DA789AD8695869586958170D7
S1130C40682F87E00E94360089AD8695869581706D
S1130C50682F86E00E94360089AD86958170682FE2
S1130C6085E00E94360089AD8170682F84E00E947F
S1130C70360061E083E00E94360080E090E0A0E26C
S1130C80B1E489879A87AB87BC8720E030E04AE7E4
S1130C9055E469857A858B859C850E94E80ADC0188
S1130CA0CB018B8F9C8FAD8FBE8F20E030E040E86E
S1130CB05FE36B8D7C8D8D8D9E8D0E94620A8823EF
S1130CC02CF481E090E098A38F8F3FC020E03FEFA9
S1130CD04FE757E46B8D7C8D8D8D9E8D0E94E30ACA
S1130CE018164CF520E030E040E251E469857A853D
S1130CF08B859C850E94E80ADC01CB01BC01CD01F7
S1130D000E94670ADC01CB0198A38F8F0FC080E992
S1130D1091E09AA389A389A19AA10197F1F79AA3D3
S1130D2089A38F8D98A1019798A38F8F8F8D98A1F8
S1130D30892B69F714C06B8D7C8D8D8D9E8D0E94DF
S1130D40670ADC01CB0198A38F8F8F8D98A19CA398
S1130D508BA38BA19CA10197F1F79CA38BA360E0CB
S1130D6083E00E94360080E090E0A0EAB0E48D8742
S1130D709E87AF87B88B20E030E04AE755E46D8565
S1130D807E858F8598890E94E80ADC01CB01898BD6
S1130D909A8BAB8BBC8B20E030E040E85FE3698941
S1130DA07A898B899C890E94620A88232CF481E0C9
S1130DB090E09E8B8D8B3FC020E03FEF4FE757E4E0
S1130DC069897A898B899C890E94E30A18164CF5F3
S1130DD020E030E040E251E46D857E858F8598897E
S1130DE00E94E80ADC01CB01BC01CD010E94670A24
S1130DF0DC01CB019E8B8D8B0FC080E991E0988F35
S1130E008F8B8F89988D0197F1F7988F8F8B8D89B0
S1130E109E8901979E8B8D8B8D899E89892B69F77D
S1130E2014C069897A898B899C890E94670ADC01CC
S1130E30CB019E8B8D8B8D899E899A8F898F898D0D
S1130E409A8D0197F1F79A8F898F0000E9960FB672
S1130E50F894DEBF0FBECDBFDF91CF910895CF933D
S1130E60DF93CDB7DEB7E9970FB6F894DEBF0FBEB8
S1130E70CDBF89AF89AD881F8827881F682F87E079
S1130E800E94360089AD829586958695837081701F
S1130E90682F86E00E94360089AD8295869587701A
S1130EA08170682F85E00E94360089AD82958F702D
S1130EB08170682F84E00E94360061E081E00E9426
S1130EC0360060E082E00E94360061E083E00E9428
S1130ED0360080E090E0A0E2B1E489839A83AB839A
S1130EE0BC8320E030E04AE755E469817A818B8154
S1130EF09C810E94E80ADC01CB018FA798ABA9ABC7
S1130F00BAAB20E030E040E85FE36FA578A989A997
S1130F109AA90E94620A88232CF481E090E09CAB99
S1130F208BAB3FC020E03FEF4FE757E46FA578A9B4
S1130F3089A99AA90E94E30A18164CF520E030E02A
S1130F4040E251E469817A818B819C810E94E80AA4
S1130F50DC01CB01BC01CD010E94670ADC01CB019D
S1130F609CAB8BAB0FC080E991E09EAB8DAB8DA9A0
S1130F709EA90197F1F79EAB8DAB8BA99CA9019714
S1130F809CAB8BAB8BA99CA9892B69F714C06FA56B
S1130F9078A989A99AA90E94670ADC01CB019CABB4
S1130FA08BAB8BA99CA998AF8FAB8FA998AD0197F8
S1130FB0F1F798AF8FAB60E083E00E94360080E0E9
S1130FC090E0A0EAB0E48D839E83AF83B88720E0ED
S1130FD030E04AE755E46D817E818F8198850E94D7
S1130FE0E80ADC01CB018DA39EA3AFA3B8A720E040
S1130FF030E040E85FE36DA17EA18FA198A50E9437
S1131000620A88232CF481E090E09AA789A73FC064
S113101020E03FEF4FE757E46DA17EA18FA198A593
S11310200E94E30A18164CF520E030E040E251E457
S11310306D817E818F8198850E94E80ADC01CB0155
S1131040BC01CD010E94670ADC01CB019AA789A7E4
S11310500FC080E991E09CA78BA78BA59CA5019765
S1131060F1F79CA78BA789A59AA501979AA789A7A9
S113107089A59AA5892B69F714C06DA17EA18FA1BA
S113108098A50E94670ADC01CB019AA789A789A5C4
S11310909AA59EA78DA78DA59EA50197F1F79EA75A
S11310A08DA789AD8695869586958170682F87E092
S11310B00E94360089AD869586958170682F86E0FA
S11310C00E94360089AD86958170682F85E00E9464
S11310D0360089AD8170682F84E00E94360061E09B
S11310E083E00E94360080E090E0A0E2B1E48987CA
S11310F09A87AB87BC8720E030E04AE755E46985EE
S11311007A858B859C850E94E80ADC01CB018B8F54
S11311109C8FAD8FBE8F20E030E040E85FE36B8DA5
S11311207C8D8D8D9E8D0E94620A88232CF481E033
S113113090E098A38F8F3FC020E03FEF4FE757E444
S11311406B8D7C8D8D8D9E8D0E94E30A18164CF557
S113115020E030E040E251E469857A858B859C8506
S11311600E94E80ADC01CB01BC01CD010E94670AA0
S1131170DC01CB0198A38F8F0FC080E991E09AA383
S113118089A389A19AA10197F1F79AA389A38F8DC5
S113119098A1019798A38F8F8F8D98A1892B69F7B8
S11311A014C06B8D7C8D8D8D9E8D0E94670ADC0131
S11311B0CB0198A38F8F8F8D98A19CA38BA38BA118
S11311C09CA10197F1F79CA38BA360E083E00E94AC
S11311D0360080E090E0A0EAB0E48D879E87AF8778
S11311E0B88B20E030E04AE755E46D857E858F8535
S11311F098890E94E80ADC01CB01898B9A8BAB8B1E
S1131200BC8B20E030E040E85FE369897A898B8910
S11312109C890E94620A88232CF481E090E09E8BD2
S11312208D8B3FC020E03FEF4FE757E469897A890F
S11312308B899C890E94E30A18164CF520E030E063
S113124040E251E46D857E858F8598890E94E80A85
S1131250DC01CB01BC01CD010E94670ADC01CB019A
S11312609E8B8D8B0FC080E991E0988F8F8B8F8937
S1131270988D0197F1F7988F8F8B8D899E890197AF
S11312809E8B8D8B8D899E89892B69F714C0698902
S11312907A898B899C890E94670ADC01CB019E8B29
S11312A08D8B8D899E899A8F898F898D9A8D0197CF
S11312B0F1F79A8F898F0000E9960FB6F894DEBF94
S11312C00FBECDBFDF91CF910895CF93DF93CDB7FC
S11312D0DEB762970FB6F894DEBF0FBECDBF998B11
S11312E0888B6A8B198280C08981882F90E0288935
S11312F03989820F931FFC0180810E942F0780E0AF
S113130090E0A0E0B0E48A839B83AC83BD8320E0BB
S113131030E04AE755E46A817B818C819D810E949B
S1131320E80ADC01CB018E839F83A887B98720E07C
S113133030E040E85FE36E817F81888599850E9473
S1131340620A88232CF481E090E09B878A873FC05F
S113135020E03FEF4FE757E46E817F8188859985D0
S11313600E94E30A18164CF520E030E040E251E414
S11313706A817B818C819D810E94E80ADC01CB011A
S1131380BC01CD010E94670ADC01CB019B878A87DF
S11313900FC080E991E09D878C878C859D8501979E
S11313A0F1F79D878C878A859B8501979B878A8720
S11313B08A859B85892B69F714C06E817F81888516
S11313C099850E94670ADC01CB019B878A878A85FD
S11313D09B859F878E878E859F850197F1F79F87D1
S11313E08E8789818F5F898399818A89981708F408
S11313F07BCF000062960FB6F894DEBF0FBECDBF60
S1131400DF91CF910895CF93DF9300D000D01F9246
S1131410CDB7DEB789836A835C834B832D836A816E
S113142089810E94210A8B819C816D810E946509BA
S113143000000F900F900F900F900F90DF91CF91BD
S11314400895CF93DF9300D0CDB7DEB789836A8345
S11314508A81803190F48981882F90E0009719F077
S1131460019731F00AC08A8180580E94F90405C0AE
S11314708A8180540E94F904000000000F900F90AC
S1131480DF91CF910895CF93DF9300D000D0CDB7F3
S1131490DEB785E689838DE68A8381E68B838EE6D3
S11314A08C830E94340281E40E942F0782E40E940C
S11314B02F0724E0CE010196AC0162E081E00E9496
S11314C0030AFFCF0E94960A08F481E008950E945F
S11314D0C20A88F09F5798F0B92F9927B751B0F0F6
S11314E0E1F0660F771F881F991F1AF0BA95C9F7A4
S11314F014C0B13091F00E94DC0AB1E008950C945C
S1131500DC0A672F782F8827B85F39F0B93FCCF30E
S1131510869577956795B395D9F73EF49095809520
S1131520709561957F4F8F4F9F4F0895990F0008D5
S1131530550FAA0BE0E8FEEF16161706E807F907A1
S1131540C0F012161306E407F50798F0621B730B3C
S1131550840B950B39F40A2661F0232B242B252BBD
S113156021F408950A2609F4A140A6958FEF811D60
S1131570811D089557FD9058440F551F59F05F3F42
S113158071F04795880F97FB991F61F09F3F79F0A1
S113159087950895121613061406551FF2CF469523
S11315A0F1DF08C0161617061806991FF1CF8695A5
S11315B07105610508940895E894BB276627772789
S11315C0CB0197F908950E94960A08F48FEF0895C5
S11315D00E94FB0A0C946C0B0E945E0B38F00E9474
S11315E0650B20F0952311F00C94550B0C945B0BB8
S11315F011240C94DD0A0E94BA0A70F3959FC1F37A
S1131600950F50E0551F629FF001729FBB27F00DAC
S1131610B11D639FAA27F00DB11DAA1F649F662701
S1131620B00DA11D661F829F2227B00DA11D621F50
S1131630739FB00DA11D621F839FA00D611D221F0A
S1131640749F3327A00D611D231F849F600D211DEE
S1131650822F762F6A2F11249F5750409AF0F1F071
S113166088234AF0EE0FFF1FBB1F661F771F881FDA
S113167091505040A9F79E3F510580F00C94550BB2
S11316800C94DD0A5F3FE4F3983ED4F38695779596
S11316906795B795F795E7959F5FC1F7FE2B880F80
S11316A0911D9695879597F9089597F99F6780E816
S11316B070E060E008959FEF80EC089500240A94A0
S11316C01616170618060906089500240A94121619
S11316D01306140605060895092E0394000C11F44C
S11316E0882352F0BB0F40F4BF2B11F460FF04C0F9
S11116F06F5F7F4F8F4F9F4F0895F894FFCF89
S9030000FC
