:100000000C942A000C9447000C9447000C9448016F
:100010000C9447000C9447000C9447000C94470044
:100020000C9447000C9447000C94A0040C944700D7
:100030000C9447000C9447000C9447000C94470024
:100040000C9447000C9447000C9447000C94470014
:100050000C94470011241FBECFE5D8E0DEBFCDBF12
:1000600010E0A0E6B0E0E6EAF9E002C005900D92EB
:10007000A837B107D9F720E0A8E7B0E001C01D928A
:10008000AC3BB207E1F70E9460010C94D1040C94E0
:100090000000CF93DF9300D0CDB7DEB789836A83AA
:1000A0008A81813009F074C089818830A8F48AE39C
:1000B00090E02AE330E0F9012081622F2981422F6C
:1000C00050E021E030E002C0220F331F4A95E2F7F2
:1000D000262BFC012083D6C089818830D8F0898105
:1000E0008031C0F487E390E027E330E0F90120811C
:1000F000622F2981222F30E0A9014850510921E0C7
:1001000030E002C0220F331F4A95E2F7262BFC0194
:100110002083B8C089818031D8F089818831C0F4CA
:1001200084E390E024E330E0F9012081622F29810B
:10013000222F30E0A9014051510921E030E002C0F6
:10014000220F331F4A95E2F7262BFC0120839AC029
:100150008981883108F496C08981803208F092C084
:1001600081E390E021E330E0F9012081622F2981D1
:10017000222F30E0A9014851510921E030E002C0AE
:10018000220F331F4A95E2F7262BFC0120837AC009
:100190008A81882309F076C089818830B0F48AE3A7
:1001A00090E02AE330E0F9012081622F2981422F7B
:1001B00050E021E030E002C0220F331F4A95E2F701
:1001C00020952623FC0120835DC089818830E0F0E2
:1001D00089818031C8F487E390E027E330E0F901BA
:1001E0002081622F2981222F30E0A9014850510936
:1001F00021E030E002C0220F331F4A95E2F720953C
:100200002623FC0120833EC089818031E0F0898172
:100210008831C8F484E390E024E330E0F9012081E0
:10022000622F2981222F30E0A9014051510921E09C
:1002300030E002C0220F331F4A95E2F720952623B3
:10024000FC0120831FC089818831E0F089818032E0
:10025000C8F481E390E021E330E0F9012081622FCE
:100260002981222F30E0A9014851510921E030E0D5
:1002700002C0220F331F4A95E2F720952623FC0186
:10028000208300C000000F900F90DF91CF91089560
:100290001F920F9200905F000F9211248F93CF93C3
:1002A000DF93CDB7DEB781E0809378000000DF9167
:1002B000CF918F910F9000925F000F901F90189533
:1002C000CF93DF93CDB7DEB768970FB6F894DEBF54
:1002D0000FBECDBF0E94D80328E0E0E6F0E0CE01DB
:1002E0000196DC0101900D922A95E1F788E0E8E69D
:1002F000F0E0DE01199601900D928A95E1F788E011
:10030000E0E7F0E0DE01519601900D928A95E1F769
:100310000E94CC0329813A814B815C816D817E8171
:100320008F8198850E94B50129853A854B855C852A
:100330006D857E858F8598890E94B50129893A89C6
:100340004B895C896D897E898F89988D0E94B50162
:100350000E94B90380E090E068960FB6F894DEBF83
:100360000FBECDBFDF91CF910895CF93DF93CDB76F
:10037000DEB760970FB6F894DEBF0FBECDBF2987FA
:100380003A874B875C876D877E878F87988B8091B4
:100390007A0090917B00A0917C00B0917D00059740
:1003A000A105B10508F056C080917A0090917B00BC
:1003B000A0917C00B0917D00892B8A2B8B2BE9F4D6
:1003C00088E0FE013996A2E8B0E001900D928A958E
:1003D000E1F780917A0090917B00A0917C00B09130
:1003E0007D000196A11DB11D80937A0090937B0042
:1003F000A0937C00B0937D002BC080917A009091F7
:100400007B00A0917C00B0917D00880F991F880F20
:10041000991F880F991F8E579F4F28E0FE0139962C
:10042000DC0101900D922A95E1F780917A0090917C
:100430007B00A0917C00B0917D000196A11DB11DB3
:1004400080937A0090937B00A0937C00B0937D0012
:1004500081E001C080E060960FB6F894DEBF0FBE69
:10046000CDBFDF91CF910895CF93DF9300D0CDB76B
:10047000DEB79A83898310927E0010927F001092DB
:10048000800010928100A3C080917E0090917F0037
:10049000A0918000B0918100880F991F880F991F4B
:1004A000880F991F8E579F4FFC01208131818981D0
:1004B0009A812817390709F077C080917E009091C2
:1004C0007F00A0918000B09181008093AA0090935A
:1004D000AB00A093AC00B093AD003DC02091AA004A
:1004E0003091AB004091AC005091AD008091AA00DA
:1004F0009091AB00A091AC00B091AD000196A11D10
:10050000B11D220F331F220F331F220F331F2E570F
:100510003F4F880F991F880F991F880F991F8E577B
:100520009F4F48E0FC01D90101900D924A95E1F7F7
:100530008091AA009091AB00A091AC00B091AD0069
:100540000196A11DB11D8093AA009093AB00A093CA
:10055000AC00B093AD002091AA003091AB00409167
:10056000AC005091AD0080917A0090917B00A091F9
:100570007C00B0917D00281739074A075B0708F413
:10058000ADCF80917A0090917B00A0917C00B091DA
:100590007D000197A109B10980937A0090937B00B7
:1005A000A0937C00B0937D0080917E0090917F00AD
:1005B000A0918000B09181000196A11DB11D809392
:1005C0007E0090937F00A0938000B09381002091E3
:1005D0007E0030917F004091800050918100809199
:1005E0007A0090917B00A0917C00B0917D0028174B
:1005F00039074A075B0708F447CF00000F900F90B8
:10060000DF91CF910895CF93DF93CDB7DEB781E02F
:10061000809379000000DF91CF910895CF93DF930D
:10062000CDB7DEB710927E0010927F00109280004E
:100630001092810084C080917E0090917F00A091F3
:100640008000B09181009C01220F331F220F331FC5
:10065000220F331F2A573F4FF9012081318121504A
:100660003109880F991F880F991F880F991F8A5782
:100670009F4FFC013183208380917E0090917F0009
:10068000A0918000B0918100880F991F880F991F59
:10069000880F991F8A579F4FFC0180819181892B78
:1006A000D9F580917E0090917F00A0918000B0915B
:1006B0008100880F991F880F991F880F991F8E57E7
:1006C0009F4FFC0180819181FC01099580917E0002
:1006D00090917F00A0918000B091810020917E00D8
:1006E00030917F004091800050918100220F331F94
:1006F000220F331F220F331F2C573F4FF901208148
:100700003181880F991F880F991F880F991F8A5769
:100710009F4FFC013183208380917E0090917F0068
:10072000A0918000B09181000196A11DB11D809320
:100730007E0090937F00A0938000B0938100209171
:100740007E0030917F004091800050918100809127
:100750007A0090917B00A0917C00B0917D002817D9
:1007600039074A075B0708F466CF0000DF91CF9195
:100770000895CF93DF93CDB7DEB70E942204809116
:1007800079008130E1F70E940E038EEF93E00E9422
:10079000340210927900F3CFCF93DF93CDB7DEB759
:1007A00083E093E00E948D040000DF91CF910895D3
:1007B000CF93DF93CDB7DEB761E08DE00E944900B3
:1007C00061E08EE00E94490061E08FE00E944900F4
:1007D0000000DF91CF910895CF93DF93CDB7DEB7BF
:1007E00088E390E028E330E0F901308120E223271C
:1007F000FC0120830000DF91CF910895CF93DF9318
:10080000CDB7DEB788E390E028E330E0F90130812E
:1008100020E42327FC0120830000DF91CF9108957D
:10082000CF93DF93CDB7DEB788E390E028E330E0E5
:10083000F901308120E82327FC0120830000DF91AB
:10084000CF910895CF93DF93CDB7DEB783E590E0E6
:1008500023E530E0F90120812F77FC01208383E537
:1008600090E023E530E0F90120812F7BFC0120831B
:1008700083E590E023E530E0F90120812F7DFC0144
:10088000208383E590E023E530E0F90120812F7E8D
:10089000FC01208383E590E023E530E0F90120812D
:1008A0002860FC01208383E590E023E530E0F90136
:1008B00020812B7FFC01208383E590E023E530E05D
:1008C000F90120812260FC01208383E590E023E58B
:1008D00030E0F90120812160FC0120838FE590E068
:1008E0002FE530E0F90120812068FC01208389E5B3
:1008F00090E029E530E0F90120812260FC012083AD
:1009000082E590E0FC0110828CE590E02CE7FC0190
:1009100020830000DF91CF910895CF93DF9300D023
:10092000CDB7DEB79A83898389819A819093BB0082
:100930008093BA0000000F900F90DF91CF9108953F
:100940001F920F9200905F000F9211242F933F93FC
:100950004F935F936F937F938F939F93AF93BF93C7
:10096000EF93FF93CF93DF93CDB7DEB78091BA00BB
:100970009091BB00FC0109950000DF91CF91FF91A0
:10098000EF91BF91AF919F918F917F916F915F9107
:100990004F913F912F910F9000925F000F901F9009
:0609A0001895F894FFCF4A
:1009A600EC03B80BB80B0300FE03D007D007020018
:0809B6001004E803E80301004E
:00000001FF
