S01300004156525F447269766572732E73726563EA
S11300000C942A000C9447000C9447000C9449006B
S11300100C9447000C9447000C9447000C94470040
S11300200C9447000C9447000C946A000C9447000D
S11300300C9447000C9447000C9447000C94470020
S11300400C9447000C9447000C9447000C94470010
S11300500C94470011241FBECFE5D8E0DEBFCDBF0E
S113006010E0A0E6B0E0EAE3F1E002C005900D92F2
S1130070A036B107D9F720E0A0E6B0E001C01D9298
S1130080A336B207E1F70E9461000C949B000C9424
S113009000001F920F9200905F000F9211248F9323
S11300A0CF93DF93CDB7DEB781E08093600000008B
S11300B0DF91CF918F910F9000925F000F901F906E
S11300C01895CF93DF93CDB7DEB780E090E0DF9152
S11300D0CF9108951F920F9200905F000F92112408
S11300E02F933F934F935F936F937F938F939F933C
S11300F0AF93BF93EF93FF93CF93DF93CDB7DEB767
S11301008091610090916200FC0109950000DF91EB
S1130110CF91FF91EF91BF91AF919F918F917F917B
S11301206F915F914F913F912F910F9000925F00DB
S10D01300F901F901895F894FFCF6C
S9030000FC
