S01300004156525F447269766572732E73726563EA
S11300000C942A000C943C000C943C000C94680260
S11300100C943C000C943C000C943C000C943C006C
S11300200C943C000C943C000C94C9030C943C00CC
S11300300C943C000C943C000C943C000C943C004C
S11300400C943C000C943C000C943C000C943C003C
S11300500C943C0011241FBECFE5D8E0DEBFCDBF19
S113006020E0A0E6B0E001C01D92A336B207E1F79C
S11300700E9480020C94DD040C940000CF93DF9363
S113008000D0CDB7DEB789836A838A81813009F0D5
S113009074C089818830A8F48BE390E02BE330E0CE
S11300A0F9012081622F2981422F50E021E030E0C4
S11300B002C0220F331F4A95E2F7262BFC0120834E
S11300C0D6C089818830D8F089818031C0F488E332
S11300D090E028E330E0F9012081622F2981222F6A
S11300E030E0A9014850510921E030E002C0220F5C
S11300F0331F4A95E2F7262BFC012083B8C089817F
S11301008031D8F089818831C0F485E390E025E31B
S113011030E0F9012081622F2981222F30E0A901EA
S11301204051510921E030E002C0220F331F4A95AB
S1130130E2F7262BFC0120839AC08981883108F4D8
S113014096C08981803208F092C082E390E022E375
S113015030E0F9012081622F2981222F30E0A901AA
S11301604851510921E030E002C0220F331F4A9563
S1130170E2F7262BFC0120837AC08A81882309F0C8
S113018076C089818830B0F48BE390E02BE330E0D3
S1130190F9012081622F2981422F50E021E030E0D3
S11301A002C0220F331F4A95E2F720952623FC0153
S11301B020835DC089818830E0F089818031C8F472
S11301C088E390E028E330E0F9012081622F29815F
S11301D0222F30E0A9014850510921E030E002C04B
S11301E0220F331F4A95E2F720952623FC01208332
S11301F03EC089818031E0F089818831C8F485E38B
S113020090E025E330E0F9012081622F2981222F3B
S113021030E0A9014051510921E030E002C0220F31
S1130220331F4A95E2F720952623FC0120831FC043
S113023089818831E0F089818032C8F482E390E0DA
S113024022E330E0F9012081622F2981222F30E05E
S1130250A9014851510921E030E002C0220F331FA7
S11302604A95E2F720952623FC01208300C0000074
S11302700F900F90DF91CF910895CF93DF9300D02B
S1130280CDB7DEB789836A838A81813009F074C06F
S113029089818830A8F48AE390E02AE330E0F90108
S11302A02081622F2981422F50E021E030E002C0FA
S11302B0220F331F4A95E2F7262BFC012083D6C078
S11302C089818830D8F089818031C0F487E390E057
S11302D027E330E0F9012081622F2981222F30E0C9
S11302E0A9014850510921E030E002C0220F331F18
S11302F04A95E2F7262BFC012083B8C0898180311E
S1130300D8F089818831C0F484E390E024E330E0BC
S1130310F9012081622F2981222F30E0A901405167
S1130320510921E030E002C0220F331F4A95E2F761
S1130330262BFC0120839AC08981883108F496C059
S11303408981803208F092C081E390E021E330E0BB
S1130350F9012081622F2981222F30E0A90148511F
S1130360510921E030E002C0220F331F4A95E2F721
S1130370262BFC0120837AC08A81882309F076C069
S113038089818830B0F48AE390E02AE330E0F9010F
S11303902081622F2981422F50E021E030E002C009
S11303A0220F331F4A95E2F720952623FC01208370
S11303B05DC089818830E0F089818031C8F487E3A9
S11303C090E027E330E0F9012081622F2981222F78
S11303D030E0A9014850510921E030E002C0220F69
S11303E0331F4A95E2F720952623FC0120833EC063
S11303F089818031E0F089818831C8F484E390E018
S113040024E330E0F9012081622F2981222F30E09A
S1130410A9014051510921E030E002C0220F331FED
S11304204A95E2F720952623FC0120831FC0898189
S11304308831E0F089818032C8F481E390E021E3DF
S113044030E0F9012081622F2981222F30E0A901B7
S11304504851510921E030E002C0220F331F4A9570
S1130460E2F720952623FC01208300C000000F90B2
S11304700F90DF91CF910895CF93DF93CDB7DEB77F
S11304808FE590E02FE530E0F90120812068FC0140
S113049020838BE590E02BE530E0F9012081206298
S11304A0FC0120838AE590E02AE530E0F90120810F
S11304B02062FC01208384E590E024E530E0F9012A
S11304C020812064FC0120830000DF91CF910895F6
S11304D01F920F9200905F000F9211248F93CF937D
S11304E0DF93CDB7DEB781E0809360000000DF9139
S11304F0CF918F910F9000925F000F901F901895ED
S1130500CF93DF931F92CDB7DEB760E08AE00E94FD
S11305103D0161E08AE00E943E0061E08DE00E94BE
S11305203D0161E08EE00E943D0161E08FE00E94A8
S11305303D010E945E030E943C020E94E9038AE599
S113054090E00E94880461E08DE00E943E001982E0
S113055031C000008091610090916200C297D0F395
S113056010926200109261001EC01092600060E060
S11305708EE00E943E0060E08DE00E943E0061E05B
S11305808FE00E943E000000809161009091620023
S1130590883E9340C8F3109262001092610060E0BC
S11305A08FE00E943E00809160008130F1F28981E9
S11305B08F5F89838981843160F260E08DE00E94DD
S11305C03E0061E08FE00E943E00198231C00000CD
S11305D08091610090916200C297D0F31092620002
S11305E0109261001EC01092600060E08EE00E94D4
S11305F03E0060E08DE00E943E0061E08FE00E94DA
S11306003E0000008091610090916200883E93401A
S1130610C8F3109262001092610060E08FE00E94C3
S11306203E00809160008130F1F289818F5F89837F
S11306308981843160F260E08FE00E943E0061E0D5
S11306408EE00E943E00198231C00000809161005A
S113065090916200C297D0F31092620010926100F0
S11306601EC01092600060E08EE00E943E0060E0D8
S11306708DE00E943E0061E08FE00E943E00000099
S11306808091610090916200883E9340C8F310927B
S113069062001092610060E08FE00E943E00809151
S11306A060008130F1F289818F5F8983898184318F
S11306B060F260E08EE00E943E0045CFCF93DF936E
S11306C0CDB7DEB783E590E023E530E0F901208182
S11306D02F77FC01208383E590E023E530E0F901E6
S11306E020812F7BFC01208383E590E023E530E02B
S11306F0F90120812F7DFC01208383E590E023E52F
S113070030E0F90120812F7EFC01208383E590E015
S113071023E530E0F90120812860FC01208383E592
S113072090E023E530E0F90120812B7FFC01208358
S113073083E590E023E530E0F90120812260FC01AB
S1130740208383E590E023E530E0F90120812160F6
S1130750FC0120838FE590E02FE530E0F901208152
S11307602068FC01208389E590E029E530E0F90167
S113077020812260FC01208382E590E0FC0110824C
S11307808CE590E02CE7FC0120830000DF91CF9101
S113079008951F920F9200905F000F9211248F937F
S11307A09F93CF93DF93CDB7DEB780916100909193
S11307B06200019690936200809361000000DF91D3
S11307C0CF919F918F910F9000925F000F901F9097
S11307D01895CF93DF93CDB7DEB761E08DE10E942A
S11307E03D0161E08EE10E943D0161E08FE10E94E4
S11307F03D0161E08EE10E943E0060E08FE10E94D5
S11308003E008FE490E02FE430E0F901208120687D
S1130810FC0120838FE490E02FE430E0F901208193
S11308202F7BFC0120838FE490E02FE430E0F9017A
S113083020812062FC0120838FE490E02FE430E0EB
S1130840F90120812F7EFC0120838FE490E02FE4C6
S113085030E0F90120812D7FFC0120838FE490E0BA
S11308602FE430E0F90120812160FC0120838FE432
S113087090E02FE430E0F9012081277FFC01208300
S11308808FE490E02FE430E0F90120812B7FFC011C
S113089020838EE490E02EE430E0F90120812F7E65
S11308A0FC0120838EE490E02EE430E0F901208105
S11308B02062FC0120838EE490E02EE430E0F90114
S11308C020812460FC0120838EE490E02EE430E05B
S11308D0F90120812D7FFC0120838EE490E02EE439
S11308E030E0F90120812E7FFC0120838DE490E02B
S11308F0FC01108287E490E025E0FC01208386E47B
S113090090E02EE0FC0120830000DF91CF91089558
S1130910CF93DF93CDB7DEB727970FB6F894DEBF3A
S11309200FBECDBF8F838EE095E09A8389838F813C
S1130930853650F58F81482F50E029813A81429FB6
S1130940C001439F900D529F900D11249C838B8373
S11309508B819C8196958795969587959C01ABE7AD
S1130960B4E10E94CE04969587959E838D838AE494
S113097090E02D81FC0120838BE490E02D813E8169
S1130980232F3327FC012083000027960FB6F89409
S1130990DEBF0FBECDBFDF91CF910895A29FB001FE
S11309A0B39FC001A39F700D811D1124911DB29F9F
S11109B0700D811D1124911D0895F894FFCF40
S9030000FC
