:100000000C942A000C943C000C943C000C943C0290
:100010000C943C000C943C000C943C000C943C0070
:100020000C943C000C943C000C949B040C943C00FD
:100030000C943C000C943C000C943C000C943C0050
:100040000C943C000C943C000C943C000C943C0040
:100050000C943C0011241FBECFE5D8E0DEBFCDBF1D
:1000600020E0A0E6B0E001C01D92A138B207E1F7A0
:100070000E9454020C94CC040C940000CF93DF93A4
:1000800000D0CDB7DEB789836A838A81813009F0D9
:1000900074C089818830A8F48BE390E02BE330E0D2
:1000A000F9012081622F2981422F50E021E030E0C8
:1000B00002C0220F331F4A95E2F7262BFC01208352
:1000C000D6C089818830D8F089818031C0F488E336
:1000D00090E028E330E0F9012081622F2981222F6E
:1000E00030E0A9014850510921E030E002C0220F60
:1000F000331F4A95E2F7262BFC012083B8C0898183
:100100008031D8F089818831C0F485E390E025E31F
:1001100030E0F9012081622F2981222F30E0A901EE
:100120004051510921E030E002C0220F331F4A95AF
:10013000E2F7262BFC0120839AC08981883108F4DC
:1001400096C08981803208F092C082E390E022E379
:1001500030E0F9012081622F2981222F30E0A901AE
:100160004851510921E030E002C0220F331F4A9567
:10017000E2F7262BFC0120837AC08A81882309F0CC
:1001800076C089818830B0F48BE390E02BE330E0D7
:10019000F9012081622F2981422F50E021E030E0D7
:1001A00002C0220F331F4A95E2F720952623FC0157
:1001B00020835DC089818830E0F089818031C8F476
:1001C00088E390E028E330E0F9012081622F298163
:1001D000222F30E0A9014850510921E030E002C04F
:1001E000220F331F4A95E2F720952623FC01208336
:1001F0003EC089818031E0F089818831C8F485E38F
:1002000090E025E330E0F9012081622F2981222F3F
:1002100030E0A9014051510921E030E002C0220F35
:10022000331F4A95E2F720952623FC0120831FC047
:1002300089818831E0F089818032C8F482E390E0DE
:1002400022E330E0F9012081622F2981222F30E062
:10025000A9014851510921E030E002C0220F331FAB
:100260004A95E2F720952623FC01208300C0000078
:100270000F900F90DF91CF910895CF93DF9300D02F
:10028000CDB7DEB789836A838A81813009F074C073
:1002900089818830A8F48AE390E02AE330E0F9010C
:1002A0002081622F2981422F50E021E030E002C0FE
:1002B000220F331F4A95E2F7262BFC012083D6C07C
:1002C00089818830D8F089818031C0F487E390E05B
:1002D00027E330E0F9012081622F2981222F30E0CD
:1002E000A9014850510921E030E002C0220F331F1C
:1002F0004A95E2F7262BFC012083B8C08981803122
:10030000D8F089818831C0F484E390E024E330E0C0
:10031000F9012081622F2981222F30E0A90140516B
:10032000510921E030E002C0220F331F4A95E2F765
:10033000262BFC0120839AC08981883108F496C05D
:100340008981803208F092C081E390E021E330E0BF
:10035000F9012081622F2981222F30E0A901485123
:10036000510921E030E002C0220F331F4A95E2F725
:10037000262BFC0120837AC08A81882309F076C06D
:1003800089818830B0F48AE390E02AE330E0F90113
:100390002081622F2981422F50E021E030E002C00D
:1003A000220F331F4A95E2F720952623FC01208374
:1003B0005DC089818830E0F089818031C8F487E3AD
:1003C00090E027E330E0F9012081622F2981222F7C
:1003D00030E0A9014850510921E030E002C0220F6D
:1003E000331F4A95E2F720952623FC0120833EC067
:1003F00089818031E0F089818831C8F484E390E01C
:1004000024E330E0F9012081622F2981222F30E09E
:10041000A9014051510921E030E002C0220F331FF1
:100420004A95E2F720952623FC0120831FC089818D
:100430008831E0F089818032C8F481E390E021E3E3
:1004400030E0F9012081622F2981222F30E0A901BB
:100450004851510921E030E002C0220F331F4A9574
:10046000E2F720952623FC01208300C000000F90B6
:100470000F90DF91CF9108951F920F9200905F002F
:100480000F9211248F93CF93DF93CDB7DEB781E026
:10049000809360000000DF91CF918F910F900092C8
:1004A0005F000F901F901895CF93DF93CDB7DEB705
:1004B00068970FB6F894DEBF0FBECDBF28E0CE011F
:1004C0000196FC01322F11923A95E9F781EE93E003
:1004D0009A83898388EE93E09C838B8388EE93E0F4
:1004E0009E838D8328E0CE010996FC01322F119264
:1004F0003A95E9F785EF93E09A87898780ED97E051
:100500009C878B8780ED97E09E878D8728E0CE01C2
:100510004196FC01322F11923A95E9F785E094E07B
:100520009A8B898B88EB9BE09C8B8B8B88EB9BE079
:100530009E8B8D8B0E94D50329813A814B815C81F2
:100540006D817E818F8198850E94C70229853A85B9
:100550004B855C856D857E858F8598890E94C70255
:1005600029893A894B895C896D897E898F89988D23
:100570000E94C7020E94C60380E090E068960FB612
:10058000F894DEBF0FBECDBFDF91CF910895CF931A
:10059000DF93CDB7DEB728970FB6F894DEBF0FBE56
:1005A000CDBF29833A834B835C836D837E838F83A6
:1005B00098878091630090916400A0916500B0914C
:1005C00066000397A105B10508F059C0809163004A
:1005D00090916400A0916500B0916600892B8A2BF0
:1005E0008B2BF1F428E0CE010196FC01A7E6B0E0E8
:1005F00001900D922A95E1F780916300909164003B
:10060000A0916500B09166000196A11DB11D809377
:10061000630090936400A0936500B09366002DC0C2
:100620008091630090916400A0916500B091660094
:10063000880F991F880F991F880F991F89599F4FFD
:1006400048E09E012F5F3F4FF901DC0101900D92C0
:100650004A95E1F78091630090916400A091650054
:10066000B09166000196A11DB11D80936300909327
:100670006400A0936500B093660081E001C080E053
:1006800028960FB6F894DEBF0FBECDBFDF91CF9195
:100690000895CF93DF93CDB7DEB781E080936200FA
:1006A0000000DF91CF910895CF93DF93CDB7DEB7F0
:1006B0001092610062C080916100882F90E09C01DF
:1006C000220F331F220F331F220F331F25593F4F95
:1006D000F9012081318121503109880F991F880F3C
:1006E000991F880F991F85599F4FFC0131832083E3
:1006F00080916100882F90E0880F991F880F991FC3
:10070000880F991F85599F4FFC0180819181892B0A
:1007100079F580916100882F90E0880F991F880FEC
:10072000991F880F991F89599F4FFC0180819181E2
:10073000FC01099580916100882F90E02091610073
:10074000222F30E0220F331F220F331F220F331FBF
:1007500027593F4FF90120813181880F991F880F58
:10076000991F880F991F85599F4FFC013183208362
:10077000809161008F5F8093610080916100833080
:1007800008F499CF0000DF91CF910895CF93DF93C4
:10079000CDB7DEB70E941D04809162008130E1F781
:1007A0000E94540310926200F7CFCF93DF93CDB72E
:1007B000DEB789E493E00E9488040000DF91CF91C6
:1007C0000895CF93DF93CDB7DEB761E08DE00E944F
:1007D0003D0160E08FE00E943E0061E08DE00E94FC
:1007E0003E000000DF91CF910895CF93DF93CDB706
:1007F000DEB761E08EE00E943D0161E08EE00E9484
:100800003E000000DF91CF910895CF93DF93CDB7E5
:10081000DEB761E08FE00E943D0160E08DE00E9464
:100820003E0060E08EE00E943E0061E08FE00E94AA
:100830003E000000DF91CF910895CF93DF93CDB7B5
:10084000DEB783E590E023E530E0F90120812F77E2
:10085000FC01208383E590E023E530E0F90120816D
:100860002F7BFC01208383E590E023E530E0F90154
:1008700020812F7DFC01208383E590E023E530E09B
:10088000F90120812F7EFC01208383E590E023E5A0
:1008900030E0F90120812860FC01208383E590E0AD
:1008A00023E530E0F90120812B7FFC01208383E5E3
:1008B00090E023E530E0F90120812260FC012083F3
:1008C00083E590E023E530E0F90120812160FC011F
:1008D00020838FE590E02FE530E0F901208120684A
:1008E000FC01208389E590E029E530E0F9012081D1
:1008F0002260FC01208382E590E0FC0110828CE5FF
:1009000090E02CE7FC0120830000DF91CF91089557
:10091000CF93DF9300D0CDB7DEB79A8389838981E7
:100920009A819093800080937F0000000F900F9039
:10093000DF91CF9108951F920F9200905F000F9268
:1009400011242F933F934F935F936F937F938F93D4
:100950009F93AF93BF93EF93FF93CF93DF93CDB765
:10096000DEB780917F0090918000FC010995000026
:10097000DF91CF91FF91EF91BF91AF919F918F91B7
:100980007F916F915F914F913F912F910F900092C6
:0C0990005F000F901F901895F894FFCFA7
:00000001FF
