S01300007573655F73746F72795F342E7372656391
S11300000C942A000C9434000C9434000C943400A6
S11300100C9434000C9434000C9434000C9434008C
S11300200C9434000C9434000C9434000C9434007C
S11300300C9434000C9434000C9434000C9434006C
S11300400C9434000C9434000C9434000C9434005C
S11300500C94340011241FBECFE5D8E0DEBFCDBF21
S11300600E94A2020C94F2030C940000CF93DF933D
S113007000D0CDB7DEB789836A838A81813009F0E5
S113008074C089818830A8F48BE390E02BE330E0DE
S1130090F9012081622F2981422F50E021E030E0D4
S11300A002C0220F331F4A95E2F7262BFC0120835E
S11300B0D6C089818830D8F089818031C0F488E342
S11300C090E028E330E0F9012081622F2981222F7A
S11300D030E0A9014850510921E030E002C0220F6C
S11300E0331F4A95E2F7262BFC012083B8C089818F
S11300F08031D8F089818831C0F485E390E025E32C
S113010030E0F9012081622F2981222F30E0A901FA
S11301104051510921E030E002C0220F331F4A95BB
S1130120E2F7262BFC0120839AC08981883108F4E8
S113013096C08981813208F092C082E390E022E384
S113014030E0F9012081622F2981222F30E0A901BA
S11301504851510921E030E002C0220F331F4A9573
S1130160E2F7262BFC0120837AC08A81882309F0D8
S113017076C089818830B0F48BE390E02BE330E0E3
S1130180F9012081622F2981422F50E021E030E0E3
S113019002C0220F331F4A95E2F720952623FC0163
S11301A020835DC089818830E0F089818031C8F482
S11301B088E390E028E330E0F9012081622F29816F
S11301C0222F30E0A9014850510921E030E002C05B
S11301D0220F331F4A95E2F720952623FC01208342
S11301E03EC089818031E0F089818831C8F485E39B
S11301F090E025E330E0F9012081622F2981222F4C
S113020030E0A9014051510921E030E002C0220F41
S1130210331F4A95E2F720952623FC0120831FC053
S113022089818831E0F089818132C8F482E390E0E9
S113023022E330E0F9012081622F2981222F30E06E
S1130240A9014851510921E030E002C0220F331FB7
S11302504A95E2F720952623FC01208300C0000084
S11302600F900F90DF91CF910895CF93DF9300D03B
S1130270CDB7DEB78A838A81883090F489E390E031
S1130280FC018081882F90E02A81222F30E002C077
S1130290959587952A95E2F78170898389814EC067
S11302A08A818830B8F08A818031A0F486E390E0B6
S11302B0FC018081882F90E02A81222F30E0285091
S11302C0310902C0959587952A95E2F78170898353
S11302D0898134C08A818031B8F08A818831A0F460
S11302E083E390E0FC018081882F90E02A81222F13
S11302F030E02051310902C0959587952A95E2F79F
S11303008170898389811AC08A818831B8F08A8191
S11303108132A0F480E390E0FC018081882F90E09A
S11303202A81222F30E02851310902C09595879502
S11303302A95E2F781708983898100C00F900F901C
S1130340DF91CF910895CF93DF9300D0CDB7DEB77F
S113035089836A838A81813009F074C089818830F5
S1130360A8F48AE390E02AE330E0F9012081622FC7
S11303702981422F50E021E030E002C0220F331FD8
S11303804A95E2F7262BFC012083D6C08981883068
S1130390D8F089818031C0F487E390E027E330E02E
S11303A0F9012081622F2981222F30E0A9014850D0
S11303B0510921E030E002C0220F331F4A95E2F7D1
S11303C0262BFC012083B8C089818031D8F0898133
S11303D08831C0F484E390E024E330E0F901208123
S11303E0622F2981222F30E0A9014051510921E0D7
S11303F030E002C0220F331F4A95E2F7262BFC019E
S113040020839AC08981883108F496C08981813219
S113041008F092C081E390E021E330E0F90120810B
S1130420622F2981222F30E0A9014851510921E08E
S113043030E002C0220F331F4A95E2F7262BFC015D
S113044020837AC08A81882309F076C08981883024
S1130450B0F48AE390E02AE330E0F9012081622FCE
S11304602981422F50E021E030E002C0220F331FE7
S11304704A95E2F720952623FC0120835DC08981FB
S11304808830E0F089818031C8F487E390E027E385
S113049030E0F9012081622F2981222F30E0A90167
S11304A04850510921E030E002C0220F331F4A9521
S11304B0E2F720952623FC0120833EC08981803108
S11304C0E0F089818831C8F484E390E024E330E0EB
S11304D0F9012081622F2981222F30E0A9014051A6
S11304E0510921E030E002C0220F331F4A95E2F7A0
S11304F020952623FC0120831FC089818831E0F0E8
S113050089818132C8F481E390E021E330E0F9018C
S11305102081622F2981222F30E0A90148515109FD
S113052021E030E002C0220F331F4A95E2F7209504
S11305302623FC01208300C000000F900F90DF9160
S1130540CF910895CF93DF931F92CDB7DEB760E0CC
S11305508AE00E94A30161E08DE00E94A30161E0B2
S11305608EE00E94A30161E08FE00E94A3010E943B
S1130570500361E08DE00E943600198225C062E3D9
S113058070E080E090E00E94A90316C060E08EE075
S11305900E94360060E08DE00E94360061E08FE04A
S11305A00E94360068EE73E080E090E00E94A903A8
S11305B060E08FE00E9436008AE00E9435018823C3
S11305C029F789818F5F898389818431C0F260E052
S11305D08DE00E94360061E08FE00E9436001982AF
S11305E025C062E370E080E090E00E94A90316C099
S11305F060E08EE00E94360060E08DE00E943600EC
S113060061E08FE00E94360068EE73E080E090E0E5
S11306100E94A90360E08FE00E9436008AE00E94F5
S11306203501882329F789818F5F89838981843102
S1130630C0F260E08FE00E94360061E08EE00E942C
S11306403600198225C062E370E080E090E00E94E9
S1130650A90316C060E08EE00E94360060E08DE0E1
S11306600E94360061E08FE00E94360068EE73E07D
S113067080E090E00E94A90360E08FE00E943600D1
S11306808AE00E943501882329F789818F5F898355
S113069089818431C0F260E08EE00E94360069CF27
S11306A0CF93DF93CDB7DEB783E590E023E530E069
S11306B0F90120812F77FC01208383E590E023E575
S11306C030E0F90120812F7BFC01208383E590E059
S11306D023E530E0F90120812F7DFC01208383E5AF
S11306E090E023E530E0F90120812F7EFC01208396
S11306F083E590E023E530E0F90120812860FC01E6
S1130700208383E590E023E530E0F90120812B7F0D
S1130710FC01208383E590E023E530E0F9012081AA
S11307202260FC01208383E590E023E530E0F901B9
S113073020812160FC01208382E590E0FC0110828D
S11307408CE590E029EFFC0120830000DF91CF913C
S11307500895CF93DF93CDB7DEB728970FB6F894FB
S1130760DEBF0FBECDBF6D837E838F8398871982D2
S11307701A821B821C821FC0000088E590E0FC01E5
S11307808081882F90E082709927892BB1F388E5C6
S113079090E028E530E0F90120812260FC0120830B
S11307A089819A81AB81BC810196A11DB11D898388
S11307B09A83AB83BC8329813A814B815C818D818F
S11307C09E81AF81B885281739074A075B07A0F2D5
S11307D0000028960FB6F894DEBF0FBECDBFDF91A0
S10B07E0CF910895F894FFCFB6
S9030000FC
